:020000040000fa
:080000000002040000000000f2
:020000040000fa
:100008009a0200009a0200009a0200009a02000078
:100018009a0200009a0200009a0200009a02000068
:100028009a0200009a0200009a0200009a02000058
:100038009a0200009a0200009a0200009a02000048
:020000040000fa
:020000040000fa
:100400000f8020000e7f24000e01880000000000f5
:10041000000020000000e000020032000001200087
:10042000200288000c000700a047200001002000e7
:1004300011000700000020000000e0000200320070
:1004400000000200000000009e0202000000000008
:100450000040da000000fe004440a9000000200037
:100460000000e0000300320000002000a00188002e
:100470004440a80000000600910188008000780038
:100480000000eb0015003700e280400032a0b4000d
:100490009101ba00e280400032a0b4009102ba009b
:1004a000e280400032a0b4000002eb00472bde00e7
:1004b000f507b200602ce10004003a000059eb009f
:1004c0008301e900fdff3e00040037006128e100e0
:1004d000010032000082eb00040007001101ba00a5
:1004e0000200e000e8ff3a00000006003159ba00bf
:1004f0008301e9000c0032002159ba008301e900b0
:10050000080032000400e00003003a00e2804000ee
:1005100032a0b400f5ff370011d9ba008301e90019
:10052000faff3a008100e800e180400032a0b40008
:0c053000000006000040da000000fe00a1
:020000040000fa
:10053c001600fa000082eb0064198800880007009e
:10054c00b10007000082eb0054168800f4ff200075
:10055c00441688000002eb00040f78000002eb0048
:10056c00140798000002eb00240798000002eb002f
:10057c00240f980003003700000000000100370032
:10058c000000000040062000be0007001e0fe8001f
:10059c001e0290000402e800140798002e0290003e
:1005ac000402e800240798003e0290000402e800d0
:1005bc00340798005416800064026200240f9800df
:1005cc002e0a9000e40f52000c003a00a400200008
:1005dc00440798005400200054079800a400200001
:1005ec00640798004401200074079800f400200070
:1005fc00040f9800e4012000140f98002e0a9000bc
:10060c00e00f52000c003a00a400200054079800a0
:10061c005400200044079800a400200074079800a0
:10062c004401200064079800f4002000140f980087
:10063c00e4012000040f98002e029000e20f5200fb
:10064c0006003a00551680000400220004826a005d
:10065c00541688000002eb00240798004e0290000c
:10066c009e027800848f520005003200de0290005a
:10067c004e029000048242009e0f52000b003a0082
:10068c00551680000400210004826a00541688006c
:10069c00de0290004e029000048242009e0f520037
:1006ac0002003a000002eb00040f78009e0290005a
:1006bc006e029000848f520006003200fe02900001
:1006cc006e029000848242001e029000848f5200c1
:1006dc000c003a00551680000400240004826a00c5
:1006ec0054168800fe0290006e0290008482420034
:1006fc001e029000848f520002003a000002eb00b0
:10070c0014079800be0290000e0a9000848f5200cd
:10071c00060032009e0a90000e0a9000848242006d
:10072c003e029000848f520093ff3a0055168000d1
:10073c000400280004826a00541688009e0a900067
:10074c000e0a9000848242003e029000848f520078
:10075c008bff3a000002eb003407980089ff37004a
:10076c000000fa00253a800004fe2f00048262008b
:10077c00243a880094022000343a8800243a8000fd
:10078c000460a1000470a100243a88001600200027
:10079c0084072000a509200037742000844b7800c2
:1007ac00854b7800864b7800143a8000040378005f
:1007bc000600a000640420007505200027742000aa
:1007cc00844b7800854b7800864b78000000000045
:1007dc00153a800004002700848262000400210086
:1007ec00848f5200faff3a0000000000153a800096
:1007fc000402200004826200e00f5200fbff320072
:10080c000080fa00000006000000fa00153a800093
:10081c00f40b2000048362006404200075052000a2
:10082c0027742000844b7800854b7800864b780029
:10083c002535800004fe2f00048262005400b300b2
:10084c00243588002536800004fe2f0004826200c7
:10085c003400b30024368800153a800004042000cc
:10086c000503720064042000750520002774200025
:10087c00844b7800854b7800864b78000080fa001a
:10088c00000006000400fa0010079800040028007d
:10089c00240888000002eb000408880004c4290026
:1008ac00140888000002eb00040f78008460a90093
:1008bc00070037000000000024048000680262007a
:1008cc00e00f5200fcff32008460a9001e0fe8000c
:1008dc001e0290009e027800848f5200f5ff3400b7
:0808ec000080fa000000060084
:020000040000fa
:0408f4000000000000
:020000040000fa
:0200000401f009
:04000000ffff0000fe
:020000040000fa
:0200000401f009
:04000800ffff0000f6
:020000040000fa
:0200000401f009
:04000c0078ff000079
:020000040000fa
:0200000401f009
:040010005bff000092
:020000040000fa
:0200000401f009
:040014007fff00006a
:020000040000fa
:0200000401f009
:04001800ffff0000e6
:020000040000fa
:0200000401f009
:04001c00dfff000002
:00000001FF
