:020000040000fa
:080000000002040000000000f2
:020000040000fa
:100008009a0200009a0200009a0200009a02000078
:100018009a0200009a0200009a0200009a02000068
:100028009a0200009a0200009a0200009a02000058
:100038009a0200009a0200009a0200009a02000048
:020000040000fa
:020000040000fa
:100400000f8020000e7f24000e01880000000000f5
:10041000000020000000e000020032000001200087
:10042000200288000c000700403820000100200056
:1004300011000700000020000000e0000200320070
:100440000000020000000000300302000000000075
:100450000040da000000fe004440a9000000200037
:100460000000e0000300320000002000a00188002e
:100470004440a80000000600910188008000780038
:100480000000eb0015003700e280400032a0b4000d
:100490009101ba00e280400032a0b4009102ba009b
:1004a000e280400032a0b4000002eb00472bde00e7
:1004b000f507b200602ce10004003a000059eb009f
:1004c0008301e900fdff3e00040037006128e100e0
:1004d000010032000082eb00040007001101ba00a5
:1004e0000200e000e8ff3a00000006003159ba00bf
:1004f0008301e9000c0032002159ba008301e900b0
:10050000080032000400e00003003a00e2804000ee
:1005100032a0b400f5ff370011d9ba008301e90019
:10052000faff3a008100e800e180400032a0b40008
:0c053000000006000040da000000fe00a1
:020000040000fa
:10053c000000fa00253a800004fe2f0004826200bd
:10054c00243a880094022000343a8800243a80002f
:10055c000460a1000470a100243a88001600200059
:10056c0084072000a509200037742000844b7800f4
:10057c00854b7800864b7800143a80000403780091
:10058c000600a000640420007505200027742000dc
:10059c00844b7800854b7800864b78000000000077
:1005ac00153a8000040027008482620004002100b8
:1005bc00848f5200faff3a0000000000153a8000c8
:1005cc000402200004826200e00f5200fbff3200a4
:1005dc000080fa00000006000000fa00153a8000c6
:1005ec00f40b2000048362006404200075052000d5
:1005fc0027742000844b7800854b7800864b78005c
:10060c002535800004fe2f00048262005400b300e4
:10061c00243588002536800004fe2f0004826200f9
:10062c003400b30024368800153a800004042000fe
:10063c000503720064042000750520002774200057
:10064c00844b7800854b7800864b78000080fa004c
:10065c00000006000400fa000082eb006419880018
:10066c00f4ff2e0054168800f4ff20004416880076
:10067c0054168000620f6200050037000000000075
:10068c0003003700000000000100370000000000ec
:10069c001e0278001407980054168000640f620044
:1006ac001e0290009e0f5200f4ff32001e029000ba
:1006bc0064026200140798001e029000e00f5200c2
:1006cc00f0ff32005516800004f020000502720085
:1006dc0004024200541688005516800004002f00b6
:1006ec008482620004002f00848f5200e7ff3a00de
:0c06fc00f4ff2e0054168800e5ff3700c4
:020000040000fa
:0407080000000000ed
:020000040000fa
:0200000401f009
:04000000ffff0000fe
:020000040000fa
:0200000401f009
:04000800ffff0000f6
:020000040000fa
:0200000401f009
:04000c0078ff000079
:020000040000fa
:0200000401f009
:040010005bff000092
:020000040000fa
:0200000401f009
:040014007fff00006a
:020000040000fa
:0200000401f009
:04001800ffff0000e6
:020000040000fa
:0200000401f009
:04001c00dfff000002
:00000001FF
